{
	"problem_5/Randomness.sol": {
		"GuessTheRandomNumber": {
			"abi": [
				{
					"inputs": [],
					"stateMutability": "payable",
					"type": "constructor"
				},
				{
					"inputs": [
						{
							"internalType": "uint256",
							"name": "_guess",
							"type": "uint256"
						}
					],
					"name": "guess",
					"outputs": [],
					"stateMutability": "nonpayable",
					"type": "function"
				}
			],
			"devdoc": {
				"kind": "dev",
				"methods": {},
				"version": 1
			},
			"evm": {
				"assembly": "    /* \"problem_5/Randomness.sol\":896:1337  contract GuessTheRandomNumber is usingProvable {... */\n  mstore(0x40, 0x80)\n  dataSize(sub_0)\n  dup1\n  dataOffset(sub_0)\n  0x00\n  codecopy\n  0x00\n  return\nstop\n\nsub_0: assembly {\n        /* \"problem_5/Randomness.sol\":896:1337  contract GuessTheRandomNumber is usingProvable {... */\n      mstore(0x40, 0x80)\n      callvalue\n      dup1\n      iszero\n      tag_1\n      jumpi\n      0x00\n      dup1\n      revert\n    tag_1:\n      pop\n      jumpi(tag_2, lt(calldatasize, 0x04))\n      shr(0xe0, calldataload(0x00))\n      dup1\n      0x9189fec1\n      eq\n      tag_3\n      jumpi\n    tag_2:\n      0x00\n      dup1\n      revert\n        /* \"problem_5/Randomness.sol\":982:1334  function guess(uint _guess) public {... */\n    tag_3:\n      tag_4\n      0x04\n      dup1\n      calldatasize\n      sub\n      dup2\n      add\n      swap1\n      tag_5\n      swap2\n      swap1\n      tag_6\n      jump\t// in\n    tag_5:\n      tag_7\n      jump\t// in\n    tag_4:\n      stop\n    tag_7:\n        /* \"problem_5/Randomness.sol\":1028:1040  uint ceiling */\n      0x00\n        /* \"problem_5/Randomness.sol\":1043:1044  1 */\n      0x01\n        /* \"problem_5/Randomness.sol\":1028:1044  uint ceiling = 1 */\n      swap1\n      pop\n        /* \"problem_5/Randomness.sol\":1057:1068  uint answer */\n      0x00\n        /* \"problem_5/Randomness.sol\":1144:1151  ceiling */\n      dup2\n        /* \"problem_5/Randomness.sol\":1105:1139  abi.encodePacked(\"awsfzsxvawewef\") */\n      add(0x20, mload(0x40))\n      tag_9\n      swap1\n      tag_10\n      jump\t// in\n    tag_9:\n      mload(0x40)\n      0x20\n      dup2\n      dup4\n      sub\n      sub\n      dup2\n      mstore\n      swap1\n      0x40\n      mstore\n        /* \"problem_5/Randomness.sol\":1095:1140  keccak256(abi.encodePacked(\"awsfzsxvawewef\")) */\n      dup1\n      mload\n      swap1\n      0x20\n      add\n      keccak256\n        /* \"problem_5/Randomness.sol\":1090:1141  uint(keccak256(abi.encodePacked(\"awsfzsxvawewef\"))) */\n      0x00\n      shr\n        /* \"problem_5/Randomness.sol\":1090:1151  uint(keccak256(abi.encodePacked(\"awsfzsxvawewef\"))) % ceiling */\n      tag_11\n      swap2\n      swap1\n      tag_12\n      jump\t// in\n    tag_11:\n        /* \"problem_5/Randomness.sol\":1057:1162  uint answer = uint(... */\n      swap1\n      pop\n        /* \"problem_5/Randomness.sol\":1189:1195  answer */\n      dup1\n        /* \"problem_5/Randomness.sol\":1179:1185  _guess */\n      dup4\n        /* \"problem_5/Randomness.sol\":1179:1195  _guess == answer */\n      sub\n        /* \"problem_5/Randomness.sol\":1175:1327  if (_guess == answer) {... */\n      tag_13\n      jumpi\n        /* \"problem_5/Randomness.sol\":1213:1222  bool sent */\n      0x00\n        /* \"problem_5/Randomness.sol\":1228:1238  msg.sender */\n      caller\n        /* \"problem_5/Randomness.sol\":1228:1243  msg.sender.call */\n      0xffffffffffffffffffffffffffffffffffffffff\n      and\n        /* \"problem_5/Randomness.sol\":1251:1258  1 ether */\n      0x0de0b6b3a7640000\n        /* \"problem_5/Randomness.sol\":1228:1263  msg.sender.call{value: 1 ether}(\"\") */\n      mload(0x40)\n      tag_14\n      swap1\n      tag_15\n      jump\t// in\n    tag_14:\n      0x00\n      mload(0x40)\n      dup1\n      dup4\n      sub\n      dup2\n      dup6\n      dup8\n      gas\n      call\n      swap3\n      pop\n      pop\n      pop\n      returndatasize\n      dup1\n      0x00\n      dup2\n      eq\n      tag_18\n      jumpi\n      mload(0x40)\n      swap2\n      pop\n      and(add(returndatasize, 0x3f), not(0x1f))\n      dup3\n      add\n      0x40\n      mstore\n      returndatasize\n      dup3\n      mstore\n      returndatasize\n      0x00\n      0x20\n      dup5\n      add\n      returndatacopy\n      jump(tag_17)\n    tag_18:\n      0x60\n      swap2\n      pop\n    tag_17:\n      pop\n        /* \"problem_5/Randomness.sol\":1212:1263  (bool sent, ) = msg.sender.call{value: 1 ether}(\"\") */\n      pop\n      swap1\n      pop\n        /* \"problem_5/Randomness.sol\":1286:1290  sent */\n      dup1\n        /* \"problem_5/Randomness.sol\":1278:1315  require(sent, \"Failed to send Ether\") */\n      tag_19\n      jumpi\n      mload(0x40)\n      0x08c379a000000000000000000000000000000000000000000000000000000000\n      dup2\n      mstore\n      0x04\n      add\n      tag_20\n      swap1\n      tag_21\n      jump\t// in\n    tag_20:\n      mload(0x40)\n      dup1\n      swap2\n      sub\n      swap1\n      revert\n    tag_19:\n        /* \"problem_5/Randomness.sol\":1197:1327  {... */\n      pop\n        /* \"problem_5/Randomness.sol\":1175:1327  if (_guess == answer) {... */\n    tag_13:\n        /* \"problem_5/Randomness.sol\":1017:1334  {... */\n      pop\n      pop\n        /* \"problem_5/Randomness.sol\":982:1334  function guess(uint _guess) public {... */\n      pop\n      jump\t// out\n        /* \"#utility.yul\":88:205   */\n    tag_23:\n        /* \"#utility.yul\":197:198   */\n      0x00\n        /* \"#utility.yul\":194:195   */\n      dup1\n        /* \"#utility.yul\":187:199   */\n      revert\n        /* \"#utility.yul\":334:411   */\n    tag_25:\n        /* \"#utility.yul\":371:378   */\n      0x00\n        /* \"#utility.yul\":400:405   */\n      dup2\n        /* \"#utility.yul\":389:405   */\n      swap1\n      pop\n        /* \"#utility.yul\":334:411   */\n      swap2\n      swap1\n      pop\n      jump\t// out\n        /* \"#utility.yul\":417:539   */\n    tag_26:\n        /* \"#utility.yul\":490:514   */\n      tag_44\n        /* \"#utility.yul\":508:513   */\n      dup2\n        /* \"#utility.yul\":490:514   */\n      tag_25\n      jump\t// in\n    tag_44:\n        /* \"#utility.yul\":483:488   */\n      dup2\n        /* \"#utility.yul\":480:515   */\n      eq\n        /* \"#utility.yul\":470:533   */\n      tag_45\n      jumpi\n        /* \"#utility.yul\":529:530   */\n      0x00\n        /* \"#utility.yul\":526:527   */\n      dup1\n        /* \"#utility.yul\":519:531   */\n      revert\n        /* \"#utility.yul\":470:533   */\n    tag_45:\n        /* \"#utility.yul\":417:539   */\n      pop\n      jump\t// out\n        /* \"#utility.yul\":545:684   */\n    tag_27:\n        /* \"#utility.yul\":591:596   */\n      0x00\n        /* \"#utility.yul\":629:635   */\n      dup2\n        /* \"#utility.yul\":616:636   */\n      calldataload\n        /* \"#utility.yul\":607:636   */\n      swap1\n      pop\n        /* \"#utility.yul\":645:678   */\n      tag_47\n        /* \"#utility.yul\":672:677   */\n      dup2\n        /* \"#utility.yul\":645:678   */\n      tag_26\n      jump\t// in\n    tag_47:\n        /* \"#utility.yul\":545:684   */\n      swap3\n      swap2\n      pop\n      pop\n      jump\t// out\n        /* \"#utility.yul\":690:1019   */\n    tag_6:\n        /* \"#utility.yul\":749:755   */\n      0x00\n        /* \"#utility.yul\":798:800   */\n      0x20\n        /* \"#utility.yul\":786:795   */\n      dup3\n        /* \"#utility.yul\":777:784   */\n      dup5\n        /* \"#utility.yul\":773:796   */\n      sub\n        /* \"#utility.yul\":769:801   */\n      slt\n        /* \"#utility.yul\":766:885   */\n      iszero\n      tag_49\n      jumpi\n        /* \"#utility.yul\":804:883   */\n      tag_50\n      tag_23\n      jump\t// in\n    tag_50:\n        /* \"#utility.yul\":766:885   */\n    tag_49:\n        /* \"#utility.yul\":924:925   */\n      0x00\n        /* \"#utility.yul\":949:1002   */\n      tag_51\n        /* \"#utility.yul\":994:1001   */\n      dup5\n        /* \"#utility.yul\":985:991   */\n      dup3\n        /* \"#utility.yul\":974:983   */\n      dup6\n        /* \"#utility.yul\":970:992   */\n      add\n        /* \"#utility.yul\":949:1002   */\n      tag_27\n      jump\t// in\n    tag_51:\n        /* \"#utility.yul\":939:1002   */\n      swap2\n      pop\n        /* \"#utility.yul\":895:1012   */\n      pop\n        /* \"#utility.yul\":690:1019   */\n      swap3\n      swap2\n      pop\n      pop\n      jump\t// out\n        /* \"#utility.yul\":1025:1173   */\n    tag_28:\n        /* \"#utility.yul\":1127:1138   */\n      0x00\n        /* \"#utility.yul\":1164:1167   */\n      dup2\n        /* \"#utility.yul\":1149:1167   */\n      swap1\n      pop\n        /* \"#utility.yul\":1025:1173   */\n      swap3\n      swap2\n      pop\n      pop\n      jump\t// out\n        /* \"#utility.yul\":1179:1343   */\n    tag_29:\n        /* \"#utility.yul\":1319:1335   */\n      0x617773667a737876617765776566000000000000000000000000000000000000\n        /* \"#utility.yul\":1315:1316   */\n      0x00\n        /* \"#utility.yul\":1307:1313   */\n      dup3\n        /* \"#utility.yul\":1303:1317   */\n      add\n        /* \"#utility.yul\":1296:1336   */\n      mstore\n        /* \"#utility.yul\":1179:1343   */\n      pop\n      jump\t// out\n        /* \"#utility.yul\":1349:1751   */\n    tag_30:\n        /* \"#utility.yul\":1509:1512   */\n      0x00\n        /* \"#utility.yul\":1530:1615   */\n      tag_55\n        /* \"#utility.yul\":1612:1614   */\n      0x0e\n        /* \"#utility.yul\":1607:1610   */\n      dup4\n        /* \"#utility.yul\":1530:1615   */\n      tag_28\n      jump\t// in\n    tag_55:\n        /* \"#utility.yul\":1523:1615   */\n      swap2\n      pop\n        /* \"#utility.yul\":1624:1717   */\n      tag_56\n        /* \"#utility.yul\":1713:1716   */\n      dup3\n        /* \"#utility.yul\":1624:1717   */\n      tag_29\n      jump\t// in\n    tag_56:\n        /* \"#utility.yul\":1742:1744   */\n      0x0e\n        /* \"#utility.yul\":1737:1740   */\n      dup3\n        /* \"#utility.yul\":1733:1745   */\n      add\n        /* \"#utility.yul\":1726:1745   */\n      swap1\n      pop\n        /* \"#utility.yul\":1349:1751   */\n      swap2\n      swap1\n      pop\n      jump\t// out\n        /* \"#utility.yul\":1757:2138   */\n    tag_10:\n        /* \"#utility.yul\":1942:1945   */\n      0x00\n        /* \"#utility.yul\":1964:2112   */\n      tag_58\n        /* \"#utility.yul\":2108:2111   */\n      dup3\n        /* \"#utility.yul\":1964:2112   */\n      tag_30\n      jump\t// in\n    tag_58:\n        /* \"#utility.yul\":1957:2112   */\n      swap2\n      pop\n        /* \"#utility.yul\":2129:2132   */\n      dup2\n        /* \"#utility.yul\":2122:2132   */\n      swap1\n      pop\n        /* \"#utility.yul\":1757:2138   */\n      swap2\n      swap1\n      pop\n      jump\t// out\n        /* \"#utility.yul\":2144:2324   */\n    tag_31:\n        /* \"#utility.yul\":2192:2269   */\n      0x4e487b7100000000000000000000000000000000000000000000000000000000\n        /* \"#utility.yul\":2189:2190   */\n      0x00\n        /* \"#utility.yul\":2182:2270   */\n      mstore\n        /* \"#utility.yul\":2289:2293   */\n      0x12\n        /* \"#utility.yul\":2286:2287   */\n      0x04\n        /* \"#utility.yul\":2279:2294   */\n      mstore\n        /* \"#utility.yul\":2313:2317   */\n      0x24\n        /* \"#utility.yul\":2310:2311   */\n      0x00\n        /* \"#utility.yul\":2303:2318   */\n      revert\n        /* \"#utility.yul\":2330:2506   */\n    tag_12:\n        /* \"#utility.yul\":2362:2363   */\n      0x00\n        /* \"#utility.yul\":2379:2399   */\n      tag_61\n        /* \"#utility.yul\":2397:2398   */\n      dup3\n        /* \"#utility.yul\":2379:2399   */\n      tag_25\n      jump\t// in\n    tag_61:\n        /* \"#utility.yul\":2374:2399   */\n      swap2\n      pop\n        /* \"#utility.yul\":2413:2433   */\n      tag_62\n        /* \"#utility.yul\":2431:2432   */\n      dup4\n        /* \"#utility.yul\":2413:2433   */\n      tag_25\n      jump\t// in\n    tag_62:\n        /* \"#utility.yul\":2408:2433   */\n      swap3\n      pop\n        /* \"#utility.yul\":2452:2453   */\n      dup3\n        /* \"#utility.yul\":2442:2477   */\n      tag_63\n      jumpi\n        /* \"#utility.yul\":2457:2475   */\n      tag_64\n      tag_31\n      jump\t// in\n    tag_64:\n        /* \"#utility.yul\":2442:2477   */\n    tag_63:\n        /* \"#utility.yul\":2498:2499   */\n      dup3\n        /* \"#utility.yul\":2495:2496   */\n      dup3\n        /* \"#utility.yul\":2491:2500   */\n      mod\n        /* \"#utility.yul\":2486:2500   */\n      swap1\n      pop\n        /* \"#utility.yul\":2330:2506   */\n      swap3\n      swap2\n      pop\n      pop\n      jump\t// out\n        /* \"#utility.yul\":2512:2659   */\n    tag_32:\n        /* \"#utility.yul\":2613:2624   */\n      0x00\n        /* \"#utility.yul\":2650:2653   */\n      dup2\n        /* \"#utility.yul\":2635:2653   */\n      swap1\n      pop\n        /* \"#utility.yul\":2512:2659   */\n      swap3\n      swap2\n      pop\n      pop\n      jump\t// out\n        /* \"#utility.yul\":2665:2779   */\n    tag_33:\n      pop\n      jump\t// out\n        /* \"#utility.yul\":2785:3183   */\n    tag_34:\n        /* \"#utility.yul\":2944:2947   */\n      0x00\n        /* \"#utility.yul\":2965:3048   */\n      tag_68\n        /* \"#utility.yul\":3046:3047   */\n      0x00\n        /* \"#utility.yul\":3041:3044   */\n      dup4\n        /* \"#utility.yul\":2965:3048   */\n      tag_32\n      jump\t// in\n    tag_68:\n        /* \"#utility.yul\":2958:3048   */\n      swap2\n      pop\n        /* \"#utility.yul\":3057:3150   */\n      tag_69\n        /* \"#utility.yul\":3146:3149   */\n      dup3\n        /* \"#utility.yul\":3057:3150   */\n      tag_33\n      jump\t// in\n    tag_69:\n        /* \"#utility.yul\":3175:3176   */\n      0x00\n        /* \"#utility.yul\":3170:3173   */\n      dup3\n        /* \"#utility.yul\":3166:3177   */\n      add\n        /* \"#utility.yul\":3159:3177   */\n      swap1\n      pop\n        /* \"#utility.yul\":2785:3183   */\n      swap2\n      swap1\n      pop\n      jump\t// out\n        /* \"#utility.yul\":3189:3568   */\n    tag_15:\n        /* \"#utility.yul\":3373:3376   */\n      0x00\n        /* \"#utility.yul\":3395:3542   */\n      tag_71\n        /* \"#utility.yul\":3538:3541   */\n      dup3\n        /* \"#utility.yul\":3395:3542   */\n      tag_34\n      jump\t// in\n    tag_71:\n        /* \"#utility.yul\":3388:3542   */\n      swap2\n      pop\n        /* \"#utility.yul\":3559:3562   */\n      dup2\n        /* \"#utility.yul\":3552:3562   */\n      swap1\n      pop\n        /* \"#utility.yul\":3189:3568   */\n      swap2\n      swap1\n      pop\n      jump\t// out\n        /* \"#utility.yul\":3574:3743   */\n    tag_35:\n        /* \"#utility.yul\":3658:3669   */\n      0x00\n        /* \"#utility.yul\":3692:3698   */\n      dup3\n        /* \"#utility.yul\":3687:3690   */\n      dup3\n        /* \"#utility.yul\":3680:3699   */\n      mstore\n        /* \"#utility.yul\":3732:3736   */\n      0x20\n        /* \"#utility.yul\":3727:3730   */\n      dup3\n        /* \"#utility.yul\":3723:3737   */\n      add\n        /* \"#utility.yul\":3708:3737   */\n      swap1\n      pop\n        /* \"#utility.yul\":3574:3743   */\n      swap3\n      swap2\n      pop\n      pop\n      jump\t// out\n        /* \"#utility.yul\":3749:3919   */\n    tag_36:\n        /* \"#utility.yul\":3889:3911   */\n      0x4661696c656420746f2073656e64204574686572000000000000000000000000\n        /* \"#utility.yul\":3885:3886   */\n      0x00\n        /* \"#utility.yul\":3877:3883   */\n      dup3\n        /* \"#utility.yul\":3873:3887   */\n      add\n        /* \"#utility.yul\":3866:3912   */\n      mstore\n        /* \"#utility.yul\":3749:3919   */\n      pop\n      jump\t// out\n        /* \"#utility.yul\":3925:4291   */\n    tag_37:\n        /* \"#utility.yul\":4067:4070   */\n      0x00\n        /* \"#utility.yul\":4088:4155   */\n      tag_75\n        /* \"#utility.yul\":4152:4154   */\n      0x14\n        /* \"#utility.yul\":4147:4150   */\n      dup4\n        /* \"#utility.yul\":4088:4155   */\n      tag_35\n      jump\t// in\n    tag_75:\n        /* \"#utility.yul\":4081:4155   */\n      swap2\n      pop\n        /* \"#utility.yul\":4164:4257   */\n      tag_76\n        /* \"#utility.yul\":4253:4256   */\n      dup3\n        /* \"#utility.yul\":4164:4257   */\n      tag_36\n      jump\t// in\n    tag_76:\n        /* \"#utility.yul\":4282:4284   */\n      0x20\n        /* \"#utility.yul\":4277:4280   */\n      dup3\n        /* \"#utility.yul\":4273:4285   */\n      add\n        /* \"#utility.yul\":4266:4285   */\n      swap1\n      pop\n        /* \"#utility.yul\":3925:4291   */\n      swap2\n      swap1\n      pop\n      jump\t// out\n        /* \"#utility.yul\":4297:4716   */\n    tag_21:\n        /* \"#utility.yul\":4463:4467   */\n      0x00\n        /* \"#utility.yul\":4501:4503   */\n      0x20\n        /* \"#utility.yul\":4490:4499   */\n      dup3\n        /* \"#utility.yul\":4486:4504   */\n      add\n        /* \"#utility.yul\":4478:4504   */\n      swap1\n      pop\n        /* \"#utility.yul\":4550:4559   */\n      dup2\n        /* \"#utility.yul\":4544:4548   */\n      dup2\n        /* \"#utility.yul\":4540:4560   */\n      sub\n        /* \"#utility.yul\":4536:4537   */\n      0x00\n        /* \"#utility.yul\":4525:4534   */\n      dup4\n        /* \"#utility.yul\":4521:4538   */\n      add\n        /* \"#utility.yul\":4514:4561   */\n      mstore\n        /* \"#utility.yul\":4578:4709   */\n      tag_78\n        /* \"#utility.yul\":4704:4708   */\n      dup2\n        /* \"#utility.yul\":4578:4709   */\n      tag_37\n      jump\t// in\n    tag_78:\n        /* \"#utility.yul\":4570:4709   */\n      swap1\n      pop\n        /* \"#utility.yul\":4297:4716   */\n      swap2\n      swap1\n      pop\n      jump\t// out\n\n    auxdata: 0xa2646970667358221220b0af2546830ae18781d502d60b4d95bda4932840240542b33eea8853071de83c64736f6c634300080d0033\n}\n",
				"bytecode": {
					"linkReferences": {},
					"object": "6080604052610378806100136000396000f3fe608060405234801561001057600080fd5b506004361061002b5760003560e01c80639189fec114610030575b600080fd5b61004a60048036038101906100459190610186565b61004c565b005b6000600190506000816040516020016100649061020a565b6040516020818303038152906040528051906020012060001c610087919061024e565b90508083036101465760003373ffffffffffffffffffffffffffffffffffffffff16670de0b6b3a76400006040516100be906102b0565b60006040518083038185875af1925050503d80600081146100fb576040519150601f19603f3d011682016040523d82523d6000602084013e610100565b606091505b5050905080610144576040517f08c379a000000000000000000000000000000000000000000000000000000000815260040161013b90610322565b60405180910390fd5b505b505050565b600080fd5b6000819050919050565b61016381610150565b811461016e57600080fd5b50565b6000813590506101808161015a565b92915050565b60006020828403121561019c5761019b61014b565b5b60006101aa84828501610171565b91505092915050565b600081905092915050565b7f617773667a737876617765776566000000000000000000000000000000000000600082015250565b60006101f4600e836101b3565b91506101ff826101be565b600e82019050919050565b6000610215826101e7565b9150819050919050565b7f4e487b7100000000000000000000000000000000000000000000000000000000600052601260045260246000fd5b600061025982610150565b915061026483610150565b9250826102745761027361021f565b5b828206905092915050565b600081905092915050565b50565b600061029a60008361027f565b91506102a58261028a565b600082019050919050565b60006102bb8261028d565b9150819050919050565b600082825260208201905092915050565b7f4661696c656420746f2073656e64204574686572000000000000000000000000600082015250565b600061030c6014836102c5565b9150610317826102d6565b602082019050919050565b6000602082019050818103600083015261033b816102ff565b905091905056fea2646970667358221220b0af2546830ae18781d502d60b4d95bda4932840240542b33eea8853071de83c64736f6c634300080d0033",
					"opcodes": "PUSH1 0x80 PUSH1 0x40 MSTORE PUSH2 0x378 DUP1 PUSH2 0x13 PUSH1 0x0 CODECOPY PUSH1 0x0 RETURN INVALID PUSH1 0x80 PUSH1 0x40 MSTORE CALLVALUE DUP1 ISZERO PUSH2 0x10 JUMPI PUSH1 0x0 DUP1 REVERT JUMPDEST POP PUSH1 0x4 CALLDATASIZE LT PUSH2 0x2B JUMPI PUSH1 0x0 CALLDATALOAD PUSH1 0xE0 SHR DUP1 PUSH4 0x9189FEC1 EQ PUSH2 0x30 JUMPI JUMPDEST PUSH1 0x0 DUP1 REVERT JUMPDEST PUSH2 0x4A PUSH1 0x4 DUP1 CALLDATASIZE SUB DUP2 ADD SWAP1 PUSH2 0x45 SWAP2 SWAP1 PUSH2 0x186 JUMP JUMPDEST PUSH2 0x4C JUMP JUMPDEST STOP JUMPDEST PUSH1 0x0 PUSH1 0x1 SWAP1 POP PUSH1 0x0 DUP2 PUSH1 0x40 MLOAD PUSH1 0x20 ADD PUSH2 0x64 SWAP1 PUSH2 0x20A JUMP JUMPDEST PUSH1 0x40 MLOAD PUSH1 0x20 DUP2 DUP4 SUB SUB DUP2 MSTORE SWAP1 PUSH1 0x40 MSTORE DUP1 MLOAD SWAP1 PUSH1 0x20 ADD KECCAK256 PUSH1 0x0 SHR PUSH2 0x87 SWAP2 SWAP1 PUSH2 0x24E JUMP JUMPDEST SWAP1 POP DUP1 DUP4 SUB PUSH2 0x146 JUMPI PUSH1 0x0 CALLER PUSH20 0xFFFFFFFFFFFFFFFFFFFFFFFFFFFFFFFFFFFFFFFF AND PUSH8 0xDE0B6B3A7640000 PUSH1 0x40 MLOAD PUSH2 0xBE SWAP1 PUSH2 0x2B0 JUMP JUMPDEST PUSH1 0x0 PUSH1 0x40 MLOAD DUP1 DUP4 SUB DUP2 DUP6 DUP8 GAS CALL SWAP3 POP POP POP RETURNDATASIZE DUP1 PUSH1 0x0 DUP2 EQ PUSH2 0xFB JUMPI PUSH1 0x40 MLOAD SWAP2 POP PUSH1 0x1F NOT PUSH1 0x3F RETURNDATASIZE ADD AND DUP3 ADD PUSH1 0x40 MSTORE RETURNDATASIZE DUP3 MSTORE RETURNDATASIZE PUSH1 0x0 PUSH1 0x20 DUP5 ADD RETURNDATACOPY PUSH2 0x100 JUMP JUMPDEST PUSH1 0x60 SWAP2 POP JUMPDEST POP POP SWAP1 POP DUP1 PUSH2 0x144 JUMPI PUSH1 0x40 MLOAD PUSH32 0x8C379A000000000000000000000000000000000000000000000000000000000 DUP2 MSTORE PUSH1 0x4 ADD PUSH2 0x13B SWAP1 PUSH2 0x322 JUMP JUMPDEST PUSH1 0x40 MLOAD DUP1 SWAP2 SUB SWAP1 REVERT JUMPDEST POP JUMPDEST POP POP POP JUMP JUMPDEST PUSH1 0x0 DUP1 REVERT JUMPDEST PUSH1 0x0 DUP2 SWAP1 POP SWAP2 SWAP1 POP JUMP JUMPDEST PUSH2 0x163 DUP2 PUSH2 0x150 JUMP JUMPDEST DUP2 EQ PUSH2 0x16E JUMPI PUSH1 0x0 DUP1 REVERT JUMPDEST POP JUMP JUMPDEST PUSH1 0x0 DUP2 CALLDATALOAD SWAP1 POP PUSH2 0x180 DUP2 PUSH2 0x15A JUMP JUMPDEST SWAP3 SWAP2 POP POP JUMP JUMPDEST PUSH1 0x0 PUSH1 0x20 DUP3 DUP5 SUB SLT ISZERO PUSH2 0x19C JUMPI PUSH2 0x19B PUSH2 0x14B JUMP JUMPDEST JUMPDEST PUSH1 0x0 PUSH2 0x1AA DUP5 DUP3 DUP6 ADD PUSH2 0x171 JUMP JUMPDEST SWAP2 POP POP SWAP3 SWAP2 POP POP JUMP JUMPDEST PUSH1 0x0 DUP2 SWAP1 POP SWAP3 SWAP2 POP POP JUMP JUMPDEST PUSH32 0x617773667A737876617765776566000000000000000000000000000000000000 PUSH1 0x0 DUP3 ADD MSTORE POP JUMP JUMPDEST PUSH1 0x0 PUSH2 0x1F4 PUSH1 0xE DUP4 PUSH2 0x1B3 JUMP JUMPDEST SWAP2 POP PUSH2 0x1FF DUP3 PUSH2 0x1BE JUMP JUMPDEST PUSH1 0xE DUP3 ADD SWAP1 POP SWAP2 SWAP1 POP JUMP JUMPDEST PUSH1 0x0 PUSH2 0x215 DUP3 PUSH2 0x1E7 JUMP JUMPDEST SWAP2 POP DUP2 SWAP1 POP SWAP2 SWAP1 POP JUMP JUMPDEST PUSH32 0x4E487B7100000000000000000000000000000000000000000000000000000000 PUSH1 0x0 MSTORE PUSH1 0x12 PUSH1 0x4 MSTORE PUSH1 0x24 PUSH1 0x0 REVERT JUMPDEST PUSH1 0x0 PUSH2 0x259 DUP3 PUSH2 0x150 JUMP JUMPDEST SWAP2 POP PUSH2 0x264 DUP4 PUSH2 0x150 JUMP JUMPDEST SWAP3 POP DUP3 PUSH2 0x274 JUMPI PUSH2 0x273 PUSH2 0x21F JUMP JUMPDEST JUMPDEST DUP3 DUP3 MOD SWAP1 POP SWAP3 SWAP2 POP POP JUMP JUMPDEST PUSH1 0x0 DUP2 SWAP1 POP SWAP3 SWAP2 POP POP JUMP JUMPDEST POP JUMP JUMPDEST PUSH1 0x0 PUSH2 0x29A PUSH1 0x0 DUP4 PUSH2 0x27F JUMP JUMPDEST SWAP2 POP PUSH2 0x2A5 DUP3 PUSH2 0x28A JUMP JUMPDEST PUSH1 0x0 DUP3 ADD SWAP1 POP SWAP2 SWAP1 POP JUMP JUMPDEST PUSH1 0x0 PUSH2 0x2BB DUP3 PUSH2 0x28D JUMP JUMPDEST SWAP2 POP DUP2 SWAP1 POP SWAP2 SWAP1 POP JUMP JUMPDEST PUSH1 0x0 DUP3 DUP3 MSTORE PUSH1 0x20 DUP3 ADD SWAP1 POP SWAP3 SWAP2 POP POP JUMP JUMPDEST PUSH32 0x4661696C656420746F2073656E64204574686572000000000000000000000000 PUSH1 0x0 DUP3 ADD MSTORE POP JUMP JUMPDEST PUSH1 0x0 PUSH2 0x30C PUSH1 0x14 DUP4 PUSH2 0x2C5 JUMP JUMPDEST SWAP2 POP PUSH2 0x317 DUP3 PUSH2 0x2D6 JUMP JUMPDEST PUSH1 0x20 DUP3 ADD SWAP1 POP SWAP2 SWAP1 POP JUMP JUMPDEST PUSH1 0x0 PUSH1 0x20 DUP3 ADD SWAP1 POP DUP2 DUP2 SUB PUSH1 0x0 DUP4 ADD MSTORE PUSH2 0x33B DUP2 PUSH2 0x2FF JUMP JUMPDEST SWAP1 POP SWAP2 SWAP1 POP JUMP INVALID LOG2 PUSH5 0x6970667358 0x22 SLT KECCAK256 0xB0 0xAF 0x25 CHAINID DUP4 EXP 0xE1 DUP8 DUP2 0xD5 MUL 0xD6 SIGNEXTEND 0x4D SWAP6 0xBD LOG4 SWAP4 0x28 BLOCKHASH 0x24 SDIV TIMESTAMP 0xB3 RETURNDATACOPY 0xEA DUP9 MSTORE8 SMOD SAR 0xE8 EXTCODECOPY PUSH5 0x736F6C6343 STOP ADDMOD 0xD STOP CALLER "
				},
				"gasEstimates": {
					"creation": {
						"codeDepositCost": "177600",
						"executionCost": "196",
						"totalCost": "177796"
					},
					"external": {
						"guess(uint256)": "infinite"
					}
				},
				"methodIdentifiers": {
					"guess(uint256)": "9189fec1"
				}
			},
			"storageLayout": {
				"storage": [
					{
						"astId": 804,
						"contract": "problem_5/Randomness.sol:GuessTheRandomNumber",
						"label": "provable",
						"offset": 0,
						"slot": "0",
						"type": "t_contract(ProvableI)783"
					},
					{
						"astId": 807,
						"contract": "problem_5/Randomness.sol:GuessTheRandomNumber",
						"label": "OAR",
						"offset": 0,
						"slot": "1",
						"type": "t_contract(OracleAddrResolverI)790"
					},
					{
						"astId": 852,
						"contract": "problem_5/Randomness.sol:GuessTheRandomNumber",
						"label": "provable_network_name",
						"offset": 0,
						"slot": "2",
						"type": "t_string_storage"
					},
					{
						"astId": 871,
						"contract": "problem_5/Randomness.sol:GuessTheRandomNumber",
						"label": "provable_randomDS_args",
						"offset": 0,
						"slot": "3",
						"type": "t_mapping(t_bytes32,t_bytes32)"
					},
					{
						"astId": 875,
						"contract": "problem_5/Randomness.sol:GuessTheRandomNumber",
						"label": "provable_randomDS_sessionKeysHashVerified",
						"offset": 0,
						"slot": "4",
						"type": "t_mapping(t_bytes32,t_bool)"
					}
				],
				"types": {
					"t_bool": {
						"encoding": "inplace",
						"label": "bool",
						"numberOfBytes": "1"
					},
					"t_bytes32": {
						"encoding": "inplace",
						"label": "bytes32",
						"numberOfBytes": "32"
					},
					"t_contract(OracleAddrResolverI)790": {
						"encoding": "inplace",
						"label": "contract OracleAddrResolverI",
						"numberOfBytes": "20"
					},
					"t_contract(ProvableI)783": {
						"encoding": "inplace",
						"label": "contract ProvableI",
						"numberOfBytes": "20"
					},
					"t_mapping(t_bytes32,t_bool)": {
						"encoding": "mapping",
						"key": "t_bytes32",
						"label": "mapping(bytes32 => bool)",
						"numberOfBytes": "32",
						"value": "t_bool"
					},
					"t_mapping(t_bytes32,t_bytes32)": {
						"encoding": "mapping",
						"key": "t_bytes32",
						"label": "mapping(bytes32 => bytes32)",
						"numberOfBytes": "32",
						"value": "t_bytes32"
					},
					"t_string_storage": {
						"encoding": "bytes",
						"label": "string",
						"numberOfBytes": "32"
					}
				}
			},
			"userdoc": {
				"kind": "user",
				"methods": {},
				"version": 1
			}
		}
	}
}