{
	"problem_2/SelfDestruct.sol": {
		"EtherGame": {
			"abi": [
				{
					"inputs": [],
					"name": "balance",
					"outputs": [
						{
							"internalType": "uint256",
							"name": "",
							"type": "uint256"
						}
					],
					"stateMutability": "view",
					"type": "function"
				},
				{
					"inputs": [],
					"name": "claimReward",
					"outputs": [],
					"stateMutability": "nonpayable",
					"type": "function"
				},
				{
					"inputs": [],
					"name": "deposit",
					"outputs": [],
					"stateMutability": "payable",
					"type": "function"
				},
				{
					"inputs": [],
					"name": "targetAmount",
					"outputs": [
						{
							"internalType": "uint256",
							"name": "",
							"type": "uint256"
						}
					],
					"stateMutability": "view",
					"type": "function"
				},
				{
					"inputs": [],
					"name": "winner",
					"outputs": [
						{
							"internalType": "address",
							"name": "",
							"type": "address"
						}
					],
					"stateMutability": "view",
					"type": "function"
				}
			],
			"devdoc": {
				"kind": "dev",
				"methods": {},
				"version": 1
			},
			"evm": {
				"assembly": "    /* \"problem_2/SelfDestruct.sol\":604:1272  contract EtherGame {... */\n  mstore(0x40, 0x80)\n    /* \"problem_2/SelfDestruct.sol\":657:664  7 ether */\n  0x6124fee993bc0000\n    /* \"problem_2/SelfDestruct.sol\":630:664  uint public targetAmount = 7 ether */\n  0x00\n  sstore\n    /* \"problem_2/SelfDestruct.sol\":604:1272  contract EtherGame {... */\n  callvalue\n  dup1\n  iszero\n  tag_1\n  jumpi\n  0x00\n  dup1\n  revert\ntag_1:\n  pop\n  dataSize(sub_0)\n  dup1\n  dataOffset(sub_0)\n  0x00\n  codecopy\n  0x00\n  return\nstop\n\nsub_0: assembly {\n        /* \"problem_2/SelfDestruct.sol\":604:1272  contract EtherGame {... */\n      mstore(0x40, 0x80)\n      jumpi(tag_1, lt(calldatasize, 0x04))\n      shr(0xe0, calldataload(0x00))\n      dup1\n      0x953b8fb8\n      eq\n      tag_2\n      jumpi\n      dup1\n      0xb69ef8a8\n      eq\n      tag_3\n      jumpi\n      dup1\n      0xb88a802f\n      eq\n      tag_4\n      jumpi\n      dup1\n      0xd0e30db0\n      eq\n      tag_5\n      jumpi\n      dup1\n      0xdfbf53ae\n      eq\n      tag_6\n      jumpi\n    tag_1:\n      0x00\n      dup1\n      revert\n        /* \"problem_2/SelfDestruct.sol\":630:664  uint public targetAmount = 7 ether */\n    tag_2:\n      callvalue\n      dup1\n      iszero\n      tag_7\n      jumpi\n      0x00\n      dup1\n      revert\n    tag_7:\n      pop\n      tag_8\n      tag_9\n      jump\t// in\n    tag_8:\n      mload(0x40)\n      tag_10\n      swap2\n      swap1\n      tag_11\n      jump\t// in\n    tag_10:\n      mload(0x40)\n      dup1\n      swap2\n      sub\n      swap1\n      return\n        /* \"problem_2/SelfDestruct.sol\":709:728  uint public balance */\n    tag_3:\n      callvalue\n      dup1\n      iszero\n      tag_12\n      jumpi\n      0x00\n      dup1\n      revert\n    tag_12:\n      pop\n      tag_13\n      tag_14\n      jump\t// in\n    tag_13:\n      mload(0x40)\n      tag_15\n      swap2\n      swap1\n      tag_11\n      jump\t// in\n    tag_15:\n      mload(0x40)\n      dup1\n      swap2\n      sub\n      swap1\n      return\n        /* \"problem_2/SelfDestruct.sol\":1051:1269  function claimReward() public {... */\n    tag_4:\n      callvalue\n      dup1\n      iszero\n      tag_16\n      jumpi\n      0x00\n      dup1\n      revert\n    tag_16:\n      pop\n      tag_17\n      tag_18\n      jump\t// in\n    tag_17:\n      stop\n        /* \"problem_2/SelfDestruct.sol\":737:1043  function deposit() public payable {... */\n    tag_5:\n      tag_19\n      tag_20\n      jump\t// in\n    tag_19:\n      stop\n        /* \"problem_2/SelfDestruct.sol\":671:692  address public winner */\n    tag_6:\n      callvalue\n      dup1\n      iszero\n      tag_21\n      jumpi\n      0x00\n      dup1\n      revert\n    tag_21:\n      pop\n      tag_22\n      tag_23\n      jump\t// in\n    tag_22:\n      mload(0x40)\n      tag_24\n      swap2\n      swap1\n      tag_25\n      jump\t// in\n    tag_24:\n      mload(0x40)\n      dup1\n      swap2\n      sub\n      swap1\n      return\n        /* \"problem_2/SelfDestruct.sol\":630:664  uint public targetAmount = 7 ether */\n    tag_9:\n      sload(0x00)\n      dup2\n      jump\t// out\n        /* \"problem_2/SelfDestruct.sol\":709:728  uint public balance */\n    tag_14:\n      sload(0x02)\n      dup2\n      jump\t// out\n        /* \"problem_2/SelfDestruct.sol\":1051:1269  function claimReward() public {... */\n    tag_18:\n        /* \"problem_2/SelfDestruct.sol\":1114:1120  winner */\n      0x01\n      0x00\n      swap1\n      sload\n      swap1\n      0x0100\n      exp\n      swap1\n      div\n      0xffffffffffffffffffffffffffffffffffffffff\n      and\n        /* \"problem_2/SelfDestruct.sol\":1100:1120  msg.sender == winner */\n      0xffffffffffffffffffffffffffffffffffffffff\n      and\n        /* \"problem_2/SelfDestruct.sol\":1100:1110  msg.sender */\n      caller\n        /* \"problem_2/SelfDestruct.sol\":1100:1120  msg.sender == winner */\n      0xffffffffffffffffffffffffffffffffffffffff\n      and\n      eq\n        /* \"problem_2/SelfDestruct.sol\":1092:1135  require(msg.sender == winner, \"Not winner\") */\n      tag_27\n      jumpi\n      mload(0x40)\n      0x08c379a000000000000000000000000000000000000000000000000000000000\n      dup2\n      mstore\n      0x04\n      add\n      tag_28\n      swap1\n      tag_29\n      jump\t// in\n    tag_28:\n      mload(0x40)\n      dup1\n      swap2\n      sub\n      swap1\n      revert\n    tag_27:\n        /* \"problem_2/SelfDestruct.sol\":1149:1158  bool sent */\n      0x00\n        /* \"problem_2/SelfDestruct.sol\":1164:1174  msg.sender */\n      caller\n        /* \"problem_2/SelfDestruct.sol\":1164:1179  msg.sender.call */\n      0xffffffffffffffffffffffffffffffffffffffff\n      and\n        /* \"problem_2/SelfDestruct.sol\":1187:1208  address(this).balance */\n      selfbalance\n        /* \"problem_2/SelfDestruct.sol\":1164:1213  msg.sender.call{value: address(this).balance}(\"\") */\n      mload(0x40)\n      tag_30\n      swap1\n      tag_31\n      jump\t// in\n    tag_30:\n      0x00\n      mload(0x40)\n      dup1\n      dup4\n      sub\n      dup2\n      dup6\n      dup8\n      gas\n      call\n      swap3\n      pop\n      pop\n      pop\n      returndatasize\n      dup1\n      0x00\n      dup2\n      eq\n      tag_34\n      jumpi\n      mload(0x40)\n      swap2\n      pop\n      and(add(returndatasize, 0x3f), not(0x1f))\n      dup3\n      add\n      0x40\n      mstore\n      returndatasize\n      dup3\n      mstore\n      returndatasize\n      0x00\n      0x20\n      dup5\n      add\n      returndatacopy\n      jump(tag_33)\n    tag_34:\n      0x60\n      swap2\n      pop\n    tag_33:\n      pop\n        /* \"problem_2/SelfDestruct.sol\":1148:1213  (bool sent, ) = msg.sender.call{value: address(this).balance}(\"\") */\n      pop\n      swap1\n      pop\n        /* \"problem_2/SelfDestruct.sol\":1232:1236  sent */\n      dup1\n        /* \"problem_2/SelfDestruct.sol\":1224:1261  require(sent, \"Failed to send Ether\") */\n      tag_35\n      jumpi\n      mload(0x40)\n      0x08c379a000000000000000000000000000000000000000000000000000000000\n      dup2\n      mstore\n      0x04\n      add\n      tag_36\n      swap1\n      tag_37\n      jump\t// in\n    tag_36:\n      mload(0x40)\n      dup1\n      swap2\n      sub\n      swap1\n      revert\n    tag_35:\n        /* \"problem_2/SelfDestruct.sol\":1081:1269  {... */\n      pop\n        /* \"problem_2/SelfDestruct.sol\":1051:1269  function claimReward() public {... */\n      jump\t// out\n        /* \"problem_2/SelfDestruct.sol\":737:1043  function deposit() public payable {... */\n    tag_20:\n        /* \"problem_2/SelfDestruct.sol\":803:810  1 ether */\n      0x0de0b6b3a7640000\n        /* \"problem_2/SelfDestruct.sol\":790:799  msg.value */\n      callvalue\n        /* \"problem_2/SelfDestruct.sol\":790:810  msg.value == 1 ether */\n      eq\n        /* \"problem_2/SelfDestruct.sol\":782:840  require(msg.value == 1 ether, \"You can only send 1 Ether\") */\n      tag_39\n      jumpi\n      mload(0x40)\n      0x08c379a000000000000000000000000000000000000000000000000000000000\n      dup2\n      mstore\n      0x04\n      add\n      tag_40\n      swap1\n      tag_41\n      jump\t// in\n    tag_40:\n      mload(0x40)\n      dup1\n      swap2\n      sub\n      swap1\n      revert\n    tag_39:\n        /* \"problem_2/SelfDestruct.sol\":853:865  uint balance */\n      0x00\n        /* \"problem_2/SelfDestruct.sol\":868:889  address(this).balance */\n      selfbalance\n        /* \"problem_2/SelfDestruct.sol\":853:889  uint balance = address(this).balance */\n      swap1\n      pop\n        /* \"problem_2/SelfDestruct.sol\":919:931  targetAmount */\n      sload(0x00)\n        /* \"problem_2/SelfDestruct.sol\":908:915  balance */\n      dup2\n        /* \"problem_2/SelfDestruct.sol\":908:931  balance <= targetAmount */\n      gt\n      iszero\n        /* \"problem_2/SelfDestruct.sol\":900:948  require(balance <= targetAmount, \"Game is over\") */\n      tag_42\n      jumpi\n      mload(0x40)\n      0x08c379a000000000000000000000000000000000000000000000000000000000\n      dup2\n      mstore\n      0x04\n      add\n      tag_43\n      swap1\n      tag_44\n      jump\t// in\n    tag_43:\n      mload(0x40)\n      dup1\n      swap2\n      sub\n      swap1\n      revert\n    tag_42:\n        /* \"problem_2/SelfDestruct.sol\":976:988  targetAmount */\n      sload(0x00)\n        /* \"problem_2/SelfDestruct.sol\":965:972  balance */\n      dup2\n        /* \"problem_2/SelfDestruct.sol\":965:988  balance == targetAmount */\n      sub\n        /* \"problem_2/SelfDestruct.sol\":961:1036  if (balance == targetAmount) {... */\n      tag_45\n      jumpi\n        /* \"problem_2/SelfDestruct.sol\":1014:1024  msg.sender */\n      caller\n        /* \"problem_2/SelfDestruct.sol\":1005:1011  winner */\n      0x01\n      0x00\n        /* \"problem_2/SelfDestruct.sol\":1005:1024  winner = msg.sender */\n      0x0100\n      exp\n      dup2\n      sload\n      dup2\n      0xffffffffffffffffffffffffffffffffffffffff\n      mul\n      not\n      and\n      swap1\n      dup4\n      0xffffffffffffffffffffffffffffffffffffffff\n      and\n      mul\n      or\n      swap1\n      sstore\n      pop\n        /* \"problem_2/SelfDestruct.sol\":961:1036  if (balance == targetAmount) {... */\n    tag_45:\n        /* \"problem_2/SelfDestruct.sol\":771:1043  {... */\n      pop\n        /* \"problem_2/SelfDestruct.sol\":737:1043  function deposit() public payable {... */\n      jump\t// out\n        /* \"problem_2/SelfDestruct.sol\":671:692  address public winner */\n    tag_23:\n      0x01\n      0x00\n      swap1\n      sload\n      swap1\n      0x0100\n      exp\n      swap1\n      div\n      0xffffffffffffffffffffffffffffffffffffffff\n      and\n      dup2\n      jump\t// out\n        /* \"#utility.yul\":7:84   */\n    tag_46:\n        /* \"#utility.yul\":44:51   */\n      0x00\n        /* \"#utility.yul\":73:78   */\n      dup2\n        /* \"#utility.yul\":62:78   */\n      swap1\n      pop\n        /* \"#utility.yul\":7:84   */\n      swap2\n      swap1\n      pop\n      jump\t// out\n        /* \"#utility.yul\":90:208   */\n    tag_47:\n        /* \"#utility.yul\":177:201   */\n      tag_66\n        /* \"#utility.yul\":195:200   */\n      dup2\n        /* \"#utility.yul\":177:201   */\n      tag_46\n      jump\t// in\n    tag_66:\n        /* \"#utility.yul\":172:175   */\n      dup3\n        /* \"#utility.yul\":165:202   */\n      mstore\n        /* \"#utility.yul\":90:208   */\n      pop\n      pop\n      jump\t// out\n        /* \"#utility.yul\":214:436   */\n    tag_11:\n        /* \"#utility.yul\":307:311   */\n      0x00\n        /* \"#utility.yul\":345:347   */\n      0x20\n        /* \"#utility.yul\":334:343   */\n      dup3\n        /* \"#utility.yul\":330:348   */\n      add\n        /* \"#utility.yul\":322:348   */\n      swap1\n      pop\n        /* \"#utility.yul\":358:429   */\n      tag_68\n        /* \"#utility.yul\":426:427   */\n      0x00\n        /* \"#utility.yul\":415:424   */\n      dup4\n        /* \"#utility.yul\":411:428   */\n      add\n        /* \"#utility.yul\":402:408   */\n      dup5\n        /* \"#utility.yul\":358:429   */\n      tag_47\n      jump\t// in\n    tag_68:\n        /* \"#utility.yul\":214:436   */\n      swap3\n      swap2\n      pop\n      pop\n      jump\t// out\n        /* \"#utility.yul\":442:568   */\n    tag_48:\n        /* \"#utility.yul\":479:486   */\n      0x00\n        /* \"#utility.yul\":519:561   */\n      0xffffffffffffffffffffffffffffffffffffffff\n        /* \"#utility.yul\":512:517   */\n      dup3\n        /* \"#utility.yul\":508:562   */\n      and\n        /* \"#utility.yul\":497:562   */\n      swap1\n      pop\n        /* \"#utility.yul\":442:568   */\n      swap2\n      swap1\n      pop\n      jump\t// out\n        /* \"#utility.yul\":574:670   */\n    tag_49:\n        /* \"#utility.yul\":611:618   */\n      0x00\n        /* \"#utility.yul\":640:664   */\n      tag_71\n        /* \"#utility.yul\":658:663   */\n      dup3\n        /* \"#utility.yul\":640:664   */\n      tag_48\n      jump\t// in\n    tag_71:\n        /* \"#utility.yul\":629:664   */\n      swap1\n      pop\n        /* \"#utility.yul\":574:670   */\n      swap2\n      swap1\n      pop\n      jump\t// out\n        /* \"#utility.yul\":676:794   */\n    tag_50:\n        /* \"#utility.yul\":763:787   */\n      tag_73\n        /* \"#utility.yul\":781:786   */\n      dup2\n        /* \"#utility.yul\":763:787   */\n      tag_49\n      jump\t// in\n    tag_73:\n        /* \"#utility.yul\":758:761   */\n      dup3\n        /* \"#utility.yul\":751:788   */\n      mstore\n        /* \"#utility.yul\":676:794   */\n      pop\n      pop\n      jump\t// out\n        /* \"#utility.yul\":800:1022   */\n    tag_25:\n        /* \"#utility.yul\":893:897   */\n      0x00\n        /* \"#utility.yul\":931:933   */\n      0x20\n        /* \"#utility.yul\":920:929   */\n      dup3\n        /* \"#utility.yul\":916:934   */\n      add\n        /* \"#utility.yul\":908:934   */\n      swap1\n      pop\n        /* \"#utility.yul\":944:1015   */\n      tag_75\n        /* \"#utility.yul\":1012:1013   */\n      0x00\n        /* \"#utility.yul\":1001:1010   */\n      dup4\n        /* \"#utility.yul\":997:1014   */\n      add\n        /* \"#utility.yul\":988:994   */\n      dup5\n        /* \"#utility.yul\":944:1015   */\n      tag_50\n      jump\t// in\n    tag_75:\n        /* \"#utility.yul\":800:1022   */\n      swap3\n      swap2\n      pop\n      pop\n      jump\t// out\n        /* \"#utility.yul\":1028:1197   */\n    tag_51:\n        /* \"#utility.yul\":1112:1123   */\n      0x00\n        /* \"#utility.yul\":1146:1152   */\n      dup3\n        /* \"#utility.yul\":1141:1144   */\n      dup3\n        /* \"#utility.yul\":1134:1153   */\n      mstore\n        /* \"#utility.yul\":1186:1190   */\n      0x20\n        /* \"#utility.yul\":1181:1184   */\n      dup3\n        /* \"#utility.yul\":1177:1191   */\n      add\n        /* \"#utility.yul\":1162:1191   */\n      swap1\n      pop\n        /* \"#utility.yul\":1028:1197   */\n      swap3\n      swap2\n      pop\n      pop\n      jump\t// out\n        /* \"#utility.yul\":1203:1363   */\n    tag_52:\n        /* \"#utility.yul\":1343:1355   */\n      0x4e6f742077696e6e657200000000000000000000000000000000000000000000\n        /* \"#utility.yul\":1339:1340   */\n      0x00\n        /* \"#utility.yul\":1331:1337   */\n      dup3\n        /* \"#utility.yul\":1327:1341   */\n      add\n        /* \"#utility.yul\":1320:1356   */\n      mstore\n        /* \"#utility.yul\":1203:1363   */\n      pop\n      jump\t// out\n        /* \"#utility.yul\":1369:1735   */\n    tag_53:\n        /* \"#utility.yul\":1511:1514   */\n      0x00\n        /* \"#utility.yul\":1532:1599   */\n      tag_79\n        /* \"#utility.yul\":1596:1598   */\n      0x0a\n        /* \"#utility.yul\":1591:1594   */\n      dup4\n        /* \"#utility.yul\":1532:1599   */\n      tag_51\n      jump\t// in\n    tag_79:\n        /* \"#utility.yul\":1525:1599   */\n      swap2\n      pop\n        /* \"#utility.yul\":1608:1701   */\n      tag_80\n        /* \"#utility.yul\":1697:1700   */\n      dup3\n        /* \"#utility.yul\":1608:1701   */\n      tag_52\n      jump\t// in\n    tag_80:\n        /* \"#utility.yul\":1726:1728   */\n      0x20\n        /* \"#utility.yul\":1721:1724   */\n      dup3\n        /* \"#utility.yul\":1717:1729   */\n      add\n        /* \"#utility.yul\":1710:1729   */\n      swap1\n      pop\n        /* \"#utility.yul\":1369:1735   */\n      swap2\n      swap1\n      pop\n      jump\t// out\n        /* \"#utility.yul\":1741:2160   */\n    tag_29:\n        /* \"#utility.yul\":1907:1911   */\n      0x00\n        /* \"#utility.yul\":1945:1947   */\n      0x20\n        /* \"#utility.yul\":1934:1943   */\n      dup3\n        /* \"#utility.yul\":1930:1948   */\n      add\n        /* \"#utility.yul\":1922:1948   */\n      swap1\n      pop\n        /* \"#utility.yul\":1994:2003   */\n      dup2\n        /* \"#utility.yul\":1988:1992   */\n      dup2\n        /* \"#utility.yul\":1984:2004   */\n      sub\n        /* \"#utility.yul\":1980:1981   */\n      0x00\n        /* \"#utility.yul\":1969:1978   */\n      dup4\n        /* \"#utility.yul\":1965:1982   */\n      add\n        /* \"#utility.yul\":1958:2005   */\n      mstore\n        /* \"#utility.yul\":2022:2153   */\n      tag_82\n        /* \"#utility.yul\":2148:2152   */\n      dup2\n        /* \"#utility.yul\":2022:2153   */\n      tag_53\n      jump\t// in\n    tag_82:\n        /* \"#utility.yul\":2014:2153   */\n      swap1\n      pop\n        /* \"#utility.yul\":1741:2160   */\n      swap2\n      swap1\n      pop\n      jump\t// out\n        /* \"#utility.yul\":2166:2313   */\n    tag_54:\n        /* \"#utility.yul\":2267:2278   */\n      0x00\n        /* \"#utility.yul\":2304:2307   */\n      dup2\n        /* \"#utility.yul\":2289:2307   */\n      swap1\n      pop\n        /* \"#utility.yul\":2166:2313   */\n      swap3\n      swap2\n      pop\n      pop\n      jump\t// out\n        /* \"#utility.yul\":2319:2433   */\n    tag_55:\n      pop\n      jump\t// out\n        /* \"#utility.yul\":2439:2837   */\n    tag_56:\n        /* \"#utility.yul\":2598:2601   */\n      0x00\n        /* \"#utility.yul\":2619:2702   */\n      tag_86\n        /* \"#utility.yul\":2700:2701   */\n      0x00\n        /* \"#utility.yul\":2695:2698   */\n      dup4\n        /* \"#utility.yul\":2619:2702   */\n      tag_54\n      jump\t// in\n    tag_86:\n        /* \"#utility.yul\":2612:2702   */\n      swap2\n      pop\n        /* \"#utility.yul\":2711:2804   */\n      tag_87\n        /* \"#utility.yul\":2800:2803   */\n      dup3\n        /* \"#utility.yul\":2711:2804   */\n      tag_55\n      jump\t// in\n    tag_87:\n        /* \"#utility.yul\":2829:2830   */\n      0x00\n        /* \"#utility.yul\":2824:2827   */\n      dup3\n        /* \"#utility.yul\":2820:2831   */\n      add\n        /* \"#utility.yul\":2813:2831   */\n      swap1\n      pop\n        /* \"#utility.yul\":2439:2837   */\n      swap2\n      swap1\n      pop\n      jump\t// out\n        /* \"#utility.yul\":2843:3222   */\n    tag_31:\n        /* \"#utility.yul\":3027:3030   */\n      0x00\n        /* \"#utility.yul\":3049:3196   */\n      tag_89\n        /* \"#utility.yul\":3192:3195   */\n      dup3\n        /* \"#utility.yul\":3049:3196   */\n      tag_56\n      jump\t// in\n    tag_89:\n        /* \"#utility.yul\":3042:3196   */\n      swap2\n      pop\n        /* \"#utility.yul\":3213:3216   */\n      dup2\n        /* \"#utility.yul\":3206:3216   */\n      swap1\n      pop\n        /* \"#utility.yul\":2843:3222   */\n      swap2\n      swap1\n      pop\n      jump\t// out\n        /* \"#utility.yul\":3228:3398   */\n    tag_57:\n        /* \"#utility.yul\":3368:3390   */\n      0x4661696c656420746f2073656e64204574686572000000000000000000000000\n        /* \"#utility.yul\":3364:3365   */\n      0x00\n        /* \"#utility.yul\":3356:3362   */\n      dup3\n        /* \"#utility.yul\":3352:3366   */\n      add\n        /* \"#utility.yul\":3345:3391   */\n      mstore\n        /* \"#utility.yul\":3228:3398   */\n      pop\n      jump\t// out\n        /* \"#utility.yul\":3404:3770   */\n    tag_58:\n        /* \"#utility.yul\":3546:3549   */\n      0x00\n        /* \"#utility.yul\":3567:3634   */\n      tag_92\n        /* \"#utility.yul\":3631:3633   */\n      0x14\n        /* \"#utility.yul\":3626:3629   */\n      dup4\n        /* \"#utility.yul\":3567:3634   */\n      tag_51\n      jump\t// in\n    tag_92:\n        /* \"#utility.yul\":3560:3634   */\n      swap2\n      pop\n        /* \"#utility.yul\":3643:3736   */\n      tag_93\n        /* \"#utility.yul\":3732:3735   */\n      dup3\n        /* \"#utility.yul\":3643:3736   */\n      tag_57\n      jump\t// in\n    tag_93:\n        /* \"#utility.yul\":3761:3763   */\n      0x20\n        /* \"#utility.yul\":3756:3759   */\n      dup3\n        /* \"#utility.yul\":3752:3764   */\n      add\n        /* \"#utility.yul\":3745:3764   */\n      swap1\n      pop\n        /* \"#utility.yul\":3404:3770   */\n      swap2\n      swap1\n      pop\n      jump\t// out\n        /* \"#utility.yul\":3776:4195   */\n    tag_37:\n        /* \"#utility.yul\":3942:3946   */\n      0x00\n        /* \"#utility.yul\":3980:3982   */\n      0x20\n        /* \"#utility.yul\":3969:3978   */\n      dup3\n        /* \"#utility.yul\":3965:3983   */\n      add\n        /* \"#utility.yul\":3957:3983   */\n      swap1\n      pop\n        /* \"#utility.yul\":4029:4038   */\n      dup2\n        /* \"#utility.yul\":4023:4027   */\n      dup2\n        /* \"#utility.yul\":4019:4039   */\n      sub\n        /* \"#utility.yul\":4015:4016   */\n      0x00\n        /* \"#utility.yul\":4004:4013   */\n      dup4\n        /* \"#utility.yul\":4000:4017   */\n      add\n        /* \"#utility.yul\":3993:4040   */\n      mstore\n        /* \"#utility.yul\":4057:4188   */\n      tag_95\n        /* \"#utility.yul\":4183:4187   */\n      dup2\n        /* \"#utility.yul\":4057:4188   */\n      tag_58\n      jump\t// in\n    tag_95:\n        /* \"#utility.yul\":4049:4188   */\n      swap1\n      pop\n        /* \"#utility.yul\":3776:4195   */\n      swap2\n      swap1\n      pop\n      jump\t// out\n        /* \"#utility.yul\":4201:4376   */\n    tag_59:\n        /* \"#utility.yul\":4341:4368   */\n      0x596f752063616e206f6e6c792073656e64203120457468657200000000000000\n        /* \"#utility.yul\":4337:4338   */\n      0x00\n        /* \"#utility.yul\":4329:4335   */\n      dup3\n        /* \"#utility.yul\":4325:4339   */\n      add\n        /* \"#utility.yul\":4318:4369   */\n      mstore\n        /* \"#utility.yul\":4201:4376   */\n      pop\n      jump\t// out\n        /* \"#utility.yul\":4382:4748   */\n    tag_60:\n        /* \"#utility.yul\":4524:4527   */\n      0x00\n        /* \"#utility.yul\":4545:4612   */\n      tag_98\n        /* \"#utility.yul\":4609:4611   */\n      0x19\n        /* \"#utility.yul\":4604:4607   */\n      dup4\n        /* \"#utility.yul\":4545:4612   */\n      tag_51\n      jump\t// in\n    tag_98:\n        /* \"#utility.yul\":4538:4612   */\n      swap2\n      pop\n        /* \"#utility.yul\":4621:4714   */\n      tag_99\n        /* \"#utility.yul\":4710:4713   */\n      dup3\n        /* \"#utility.yul\":4621:4714   */\n      tag_59\n      jump\t// in\n    tag_99:\n        /* \"#utility.yul\":4739:4741   */\n      0x20\n        /* \"#utility.yul\":4734:4737   */\n      dup3\n        /* \"#utility.yul\":4730:4742   */\n      add\n        /* \"#utility.yul\":4723:4742   */\n      swap1\n      pop\n        /* \"#utility.yul\":4382:4748   */\n      swap2\n      swap1\n      pop\n      jump\t// out\n        /* \"#utility.yul\":4754:5173   */\n    tag_41:\n        /* \"#utility.yul\":4920:4924   */\n      0x00\n        /* \"#utility.yul\":4958:4960   */\n      0x20\n        /* \"#utility.yul\":4947:4956   */\n      dup3\n        /* \"#utility.yul\":4943:4961   */\n      add\n        /* \"#utility.yul\":4935:4961   */\n      swap1\n      pop\n        /* \"#utility.yul\":5007:5016   */\n      dup2\n        /* \"#utility.yul\":5001:5005   */\n      dup2\n        /* \"#utility.yul\":4997:5017   */\n      sub\n        /* \"#utility.yul\":4993:4994   */\n      0x00\n        /* \"#utility.yul\":4982:4991   */\n      dup4\n        /* \"#utility.yul\":4978:4995   */\n      add\n        /* \"#utility.yul\":4971:5018   */\n      mstore\n        /* \"#utility.yul\":5035:5166   */\n      tag_101\n        /* \"#utility.yul\":5161:5165   */\n      dup2\n        /* \"#utility.yul\":5035:5166   */\n      tag_60\n      jump\t// in\n    tag_101:\n        /* \"#utility.yul\":5027:5166   */\n      swap1\n      pop\n        /* \"#utility.yul\":4754:5173   */\n      swap2\n      swap1\n      pop\n      jump\t// out\n        /* \"#utility.yul\":5179:5341   */\n    tag_61:\n        /* \"#utility.yul\":5319:5333   */\n      0x47616d65206973206f7665720000000000000000000000000000000000000000\n        /* \"#utility.yul\":5315:5316   */\n      0x00\n        /* \"#utility.yul\":5307:5313   */\n      dup3\n        /* \"#utility.yul\":5303:5317   */\n      add\n        /* \"#utility.yul\":5296:5334   */\n      mstore\n        /* \"#utility.yul\":5179:5341   */\n      pop\n      jump\t// out\n        /* \"#utility.yul\":5347:5713   */\n    tag_62:\n        /* \"#utility.yul\":5489:5492   */\n      0x00\n        /* \"#utility.yul\":5510:5577   */\n      tag_104\n        /* \"#utility.yul\":5574:5576   */\n      0x0c\n        /* \"#utility.yul\":5569:5572   */\n      dup4\n        /* \"#utility.yul\":5510:5577   */\n      tag_51\n      jump\t// in\n    tag_104:\n        /* \"#utility.yul\":5503:5577   */\n      swap2\n      pop\n        /* \"#utility.yul\":5586:5679   */\n      tag_105\n        /* \"#utility.yul\":5675:5678   */\n      dup3\n        /* \"#utility.yul\":5586:5679   */\n      tag_61\n      jump\t// in\n    tag_105:\n        /* \"#utility.yul\":5704:5706   */\n      0x20\n        /* \"#utility.yul\":5699:5702   */\n      dup3\n        /* \"#utility.yul\":5695:5707   */\n      add\n        /* \"#utility.yul\":5688:5707   */\n      swap1\n      pop\n        /* \"#utility.yul\":5347:5713   */\n      swap2\n      swap1\n      pop\n      jump\t// out\n        /* \"#utility.yul\":5719:6138   */\n    tag_44:\n        /* \"#utility.yul\":5885:5889   */\n      0x00\n        /* \"#utility.yul\":5923:5925   */\n      0x20\n        /* \"#utility.yul\":5912:5921   */\n      dup3\n        /* \"#utility.yul\":5908:5926   */\n      add\n        /* \"#utility.yul\":5900:5926   */\n      swap1\n      pop\n        /* \"#utility.yul\":5972:5981   */\n      dup2\n        /* \"#utility.yul\":5966:5970   */\n      dup2\n        /* \"#utility.yul\":5962:5982   */\n      sub\n        /* \"#utility.yul\":5958:5959   */\n      0x00\n        /* \"#utility.yul\":5947:5956   */\n      dup4\n        /* \"#utility.yul\":5943:5960   */\n      add\n        /* \"#utility.yul\":5936:5983   */\n      mstore\n        /* \"#utility.yul\":6000:6131   */\n      tag_107\n        /* \"#utility.yul\":6126:6130   */\n      dup2\n        /* \"#utility.yul\":6000:6131   */\n      tag_62\n      jump\t// in\n    tag_107:\n        /* \"#utility.yul\":5992:6131   */\n      swap1\n      pop\n        /* \"#utility.yul\":5719:6138   */\n      swap2\n      swap1\n      pop\n      jump\t// out\n\n    auxdata: 0xa2646970667358221220b71d101af3d5fa31f1704c14d8946313f3e3685b20243c42791c2d8b982bdf2a64736f6c63430008110033\n}\n",
				"bytecode": {
					"linkReferences": {},
					"object": "6080604052676124fee993bc000060005534801561001c57600080fd5b506106118061002c6000396000f3fe60806040526004361061004a5760003560e01c8063953b8fb81461004f578063b69ef8a81461007a578063b88a802f146100a5578063d0e30db0146100bc578063dfbf53ae146100c6575b600080fd5b34801561005b57600080fd5b506100646100f1565b604051610071919061035d565b60405180910390f35b34801561008657600080fd5b5061008f6100f7565b60405161009c919061035d565b60405180910390f35b3480156100b157600080fd5b506100ba6100fd565b005b6100c461023c565b005b3480156100d257600080fd5b506100db61031e565b6040516100e891906103b9565b60405180910390f35b60005481565b60025481565b600160009054906101000a900473ffffffffffffffffffffffffffffffffffffffff1673ffffffffffffffffffffffffffffffffffffffff163373ffffffffffffffffffffffffffffffffffffffff161461018d576040517f08c379a000000000000000000000000000000000000000000000000000000000815260040161018490610431565b60405180910390fd5b60003373ffffffffffffffffffffffffffffffffffffffff16476040516101b390610482565b60006040518083038185875af1925050503d80600081146101f0576040519150601f19603f3d011682016040523d82523d6000602084013e6101f5565b606091505b5050905080610239576040517f08c379a0000000000000000000000000000000000000000000000000000000008152600401610230906104e3565b60405180910390fd5b50565b670de0b6b3a76400003414610286576040517f08c379a000000000000000000000000000000000000000000000000000000000815260040161027d9061054f565b60405180910390fd5b60004790506000548111156102d0576040517f08c379a00000000000000000000000000000000000000000000000000000000081526004016102c7906105bb565b60405180910390fd5b600054810361031b5733600160006101000a81548173ffffffffffffffffffffffffffffffffffffffff021916908373ffffffffffffffffffffffffffffffffffffffff1602179055505b50565b600160009054906101000a900473ffffffffffffffffffffffffffffffffffffffff1681565b6000819050919050565b61035781610344565b82525050565b6000602082019050610372600083018461034e565b92915050565b600073ffffffffffffffffffffffffffffffffffffffff82169050919050565b60006103a382610378565b9050919050565b6103b381610398565b82525050565b60006020820190506103ce60008301846103aa565b92915050565b600082825260208201905092915050565b7f4e6f742077696e6e657200000000000000000000000000000000000000000000600082015250565b600061041b600a836103d4565b9150610426826103e5565b602082019050919050565b6000602082019050818103600083015261044a8161040e565b9050919050565b600081905092915050565b50565b600061046c600083610451565b91506104778261045c565b600082019050919050565b600061048d8261045f565b9150819050919050565b7f4661696c656420746f2073656e64204574686572000000000000000000000000600082015250565b60006104cd6014836103d4565b91506104d882610497565b602082019050919050565b600060208201905081810360008301526104fc816104c0565b9050919050565b7f596f752063616e206f6e6c792073656e64203120457468657200000000000000600082015250565b60006105396019836103d4565b915061054482610503565b602082019050919050565b600060208201905081810360008301526105688161052c565b9050919050565b7f47616d65206973206f7665720000000000000000000000000000000000000000600082015250565b60006105a5600c836103d4565b91506105b08261056f565b602082019050919050565b600060208201905081810360008301526105d481610598565b905091905056fea2646970667358221220b71d101af3d5fa31f1704c14d8946313f3e3685b20243c42791c2d8b982bdf2a64736f6c63430008110033",
					"opcodes": "PUSH1 0x80 PUSH1 0x40 MSTORE PUSH8 0x6124FEE993BC0000 PUSH1 0x0 SSTORE CALLVALUE DUP1 ISZERO PUSH2 0x1C JUMPI PUSH1 0x0 DUP1 REVERT JUMPDEST POP PUSH2 0x611 DUP1 PUSH2 0x2C PUSH1 0x0 CODECOPY PUSH1 0x0 RETURN INVALID PUSH1 0x80 PUSH1 0x40 MSTORE PUSH1 0x4 CALLDATASIZE LT PUSH2 0x4A JUMPI PUSH1 0x0 CALLDATALOAD PUSH1 0xE0 SHR DUP1 PUSH4 0x953B8FB8 EQ PUSH2 0x4F JUMPI DUP1 PUSH4 0xB69EF8A8 EQ PUSH2 0x7A JUMPI DUP1 PUSH4 0xB88A802F EQ PUSH2 0xA5 JUMPI DUP1 PUSH4 0xD0E30DB0 EQ PUSH2 0xBC JUMPI DUP1 PUSH4 0xDFBF53AE EQ PUSH2 0xC6 JUMPI JUMPDEST PUSH1 0x0 DUP1 REVERT JUMPDEST CALLVALUE DUP1 ISZERO PUSH2 0x5B JUMPI PUSH1 0x0 DUP1 REVERT JUMPDEST POP PUSH2 0x64 PUSH2 0xF1 JUMP JUMPDEST PUSH1 0x40 MLOAD PUSH2 0x71 SWAP2 SWAP1 PUSH2 0x35D JUMP JUMPDEST PUSH1 0x40 MLOAD DUP1 SWAP2 SUB SWAP1 RETURN JUMPDEST CALLVALUE DUP1 ISZERO PUSH2 0x86 JUMPI PUSH1 0x0 DUP1 REVERT JUMPDEST POP PUSH2 0x8F PUSH2 0xF7 JUMP JUMPDEST PUSH1 0x40 MLOAD PUSH2 0x9C SWAP2 SWAP1 PUSH2 0x35D JUMP JUMPDEST PUSH1 0x40 MLOAD DUP1 SWAP2 SUB SWAP1 RETURN JUMPDEST CALLVALUE DUP1 ISZERO PUSH2 0xB1 JUMPI PUSH1 0x0 DUP1 REVERT JUMPDEST POP PUSH2 0xBA PUSH2 0xFD JUMP JUMPDEST STOP JUMPDEST PUSH2 0xC4 PUSH2 0x23C JUMP JUMPDEST STOP JUMPDEST CALLVALUE DUP1 ISZERO PUSH2 0xD2 JUMPI PUSH1 0x0 DUP1 REVERT JUMPDEST POP PUSH2 0xDB PUSH2 0x31E JUMP JUMPDEST PUSH1 0x40 MLOAD PUSH2 0xE8 SWAP2 SWAP1 PUSH2 0x3B9 JUMP JUMPDEST PUSH1 0x40 MLOAD DUP1 SWAP2 SUB SWAP1 RETURN JUMPDEST PUSH1 0x0 SLOAD DUP2 JUMP JUMPDEST PUSH1 0x2 SLOAD DUP2 JUMP JUMPDEST PUSH1 0x1 PUSH1 0x0 SWAP1 SLOAD SWAP1 PUSH2 0x100 EXP SWAP1 DIV PUSH20 0xFFFFFFFFFFFFFFFFFFFFFFFFFFFFFFFFFFFFFFFF AND PUSH20 0xFFFFFFFFFFFFFFFFFFFFFFFFFFFFFFFFFFFFFFFF AND CALLER PUSH20 0xFFFFFFFFFFFFFFFFFFFFFFFFFFFFFFFFFFFFFFFF AND EQ PUSH2 0x18D JUMPI PUSH1 0x40 MLOAD PUSH32 0x8C379A000000000000000000000000000000000000000000000000000000000 DUP2 MSTORE PUSH1 0x4 ADD PUSH2 0x184 SWAP1 PUSH2 0x431 JUMP JUMPDEST PUSH1 0x40 MLOAD DUP1 SWAP2 SUB SWAP1 REVERT JUMPDEST PUSH1 0x0 CALLER PUSH20 0xFFFFFFFFFFFFFFFFFFFFFFFFFFFFFFFFFFFFFFFF AND SELFBALANCE PUSH1 0x40 MLOAD PUSH2 0x1B3 SWAP1 PUSH2 0x482 JUMP JUMPDEST PUSH1 0x0 PUSH1 0x40 MLOAD DUP1 DUP4 SUB DUP2 DUP6 DUP8 GAS CALL SWAP3 POP POP POP RETURNDATASIZE DUP1 PUSH1 0x0 DUP2 EQ PUSH2 0x1F0 JUMPI PUSH1 0x40 MLOAD SWAP2 POP PUSH1 0x1F NOT PUSH1 0x3F RETURNDATASIZE ADD AND DUP3 ADD PUSH1 0x40 MSTORE RETURNDATASIZE DUP3 MSTORE RETURNDATASIZE PUSH1 0x0 PUSH1 0x20 DUP5 ADD RETURNDATACOPY PUSH2 0x1F5 JUMP JUMPDEST PUSH1 0x60 SWAP2 POP JUMPDEST POP POP SWAP1 POP DUP1 PUSH2 0x239 JUMPI PUSH1 0x40 MLOAD PUSH32 0x8C379A000000000000000000000000000000000000000000000000000000000 DUP2 MSTORE PUSH1 0x4 ADD PUSH2 0x230 SWAP1 PUSH2 0x4E3 JUMP JUMPDEST PUSH1 0x40 MLOAD DUP1 SWAP2 SUB SWAP1 REVERT JUMPDEST POP JUMP JUMPDEST PUSH8 0xDE0B6B3A7640000 CALLVALUE EQ PUSH2 0x286 JUMPI PUSH1 0x40 MLOAD PUSH32 0x8C379A000000000000000000000000000000000000000000000000000000000 DUP2 MSTORE PUSH1 0x4 ADD PUSH2 0x27D SWAP1 PUSH2 0x54F JUMP JUMPDEST PUSH1 0x40 MLOAD DUP1 SWAP2 SUB SWAP1 REVERT JUMPDEST PUSH1 0x0 SELFBALANCE SWAP1 POP PUSH1 0x0 SLOAD DUP2 GT ISZERO PUSH2 0x2D0 JUMPI PUSH1 0x40 MLOAD PUSH32 0x8C379A000000000000000000000000000000000000000000000000000000000 DUP2 MSTORE PUSH1 0x4 ADD PUSH2 0x2C7 SWAP1 PUSH2 0x5BB JUMP JUMPDEST PUSH1 0x40 MLOAD DUP1 SWAP2 SUB SWAP1 REVERT JUMPDEST PUSH1 0x0 SLOAD DUP2 SUB PUSH2 0x31B JUMPI CALLER PUSH1 0x1 PUSH1 0x0 PUSH2 0x100 EXP DUP2 SLOAD DUP2 PUSH20 0xFFFFFFFFFFFFFFFFFFFFFFFFFFFFFFFFFFFFFFFF MUL NOT AND SWAP1 DUP4 PUSH20 0xFFFFFFFFFFFFFFFFFFFFFFFFFFFFFFFFFFFFFFFF AND MUL OR SWAP1 SSTORE POP JUMPDEST POP JUMP JUMPDEST PUSH1 0x1 PUSH1 0x0 SWAP1 SLOAD SWAP1 PUSH2 0x100 EXP SWAP1 DIV PUSH20 0xFFFFFFFFFFFFFFFFFFFFFFFFFFFFFFFFFFFFFFFF AND DUP2 JUMP JUMPDEST PUSH1 0x0 DUP2 SWAP1 POP SWAP2 SWAP1 POP JUMP JUMPDEST PUSH2 0x357 DUP2 PUSH2 0x344 JUMP JUMPDEST DUP3 MSTORE POP POP JUMP JUMPDEST PUSH1 0x0 PUSH1 0x20 DUP3 ADD SWAP1 POP PUSH2 0x372 PUSH1 0x0 DUP4 ADD DUP5 PUSH2 0x34E JUMP JUMPDEST SWAP3 SWAP2 POP POP JUMP JUMPDEST PUSH1 0x0 PUSH20 0xFFFFFFFFFFFFFFFFFFFFFFFFFFFFFFFFFFFFFFFF DUP3 AND SWAP1 POP SWAP2 SWAP1 POP JUMP JUMPDEST PUSH1 0x0 PUSH2 0x3A3 DUP3 PUSH2 0x378 JUMP JUMPDEST SWAP1 POP SWAP2 SWAP1 POP JUMP JUMPDEST PUSH2 0x3B3 DUP2 PUSH2 0x398 JUMP JUMPDEST DUP3 MSTORE POP POP JUMP JUMPDEST PUSH1 0x0 PUSH1 0x20 DUP3 ADD SWAP1 POP PUSH2 0x3CE PUSH1 0x0 DUP4 ADD DUP5 PUSH2 0x3AA JUMP JUMPDEST SWAP3 SWAP2 POP POP JUMP JUMPDEST PUSH1 0x0 DUP3 DUP3 MSTORE PUSH1 0x20 DUP3 ADD SWAP1 POP SWAP3 SWAP2 POP POP JUMP JUMPDEST PUSH32 0x4E6F742077696E6E657200000000000000000000000000000000000000000000 PUSH1 0x0 DUP3 ADD MSTORE POP JUMP JUMPDEST PUSH1 0x0 PUSH2 0x41B PUSH1 0xA DUP4 PUSH2 0x3D4 JUMP JUMPDEST SWAP2 POP PUSH2 0x426 DUP3 PUSH2 0x3E5 JUMP JUMPDEST PUSH1 0x20 DUP3 ADD SWAP1 POP SWAP2 SWAP1 POP JUMP JUMPDEST PUSH1 0x0 PUSH1 0x20 DUP3 ADD SWAP1 POP DUP2 DUP2 SUB PUSH1 0x0 DUP4 ADD MSTORE PUSH2 0x44A DUP2 PUSH2 0x40E JUMP JUMPDEST SWAP1 POP SWAP2 SWAP1 POP JUMP JUMPDEST PUSH1 0x0 DUP2 SWAP1 POP SWAP3 SWAP2 POP POP JUMP JUMPDEST POP JUMP JUMPDEST PUSH1 0x0 PUSH2 0x46C PUSH1 0x0 DUP4 PUSH2 0x451 JUMP JUMPDEST SWAP2 POP PUSH2 0x477 DUP3 PUSH2 0x45C JUMP JUMPDEST PUSH1 0x0 DUP3 ADD SWAP1 POP SWAP2 SWAP1 POP JUMP JUMPDEST PUSH1 0x0 PUSH2 0x48D DUP3 PUSH2 0x45F JUMP JUMPDEST SWAP2 POP DUP2 SWAP1 POP SWAP2 SWAP1 POP JUMP JUMPDEST PUSH32 0x4661696C656420746F2073656E64204574686572000000000000000000000000 PUSH1 0x0 DUP3 ADD MSTORE POP JUMP JUMPDEST PUSH1 0x0 PUSH2 0x4CD PUSH1 0x14 DUP4 PUSH2 0x3D4 JUMP JUMPDEST SWAP2 POP PUSH2 0x4D8 DUP3 PUSH2 0x497 JUMP JUMPDEST PUSH1 0x20 DUP3 ADD SWAP1 POP SWAP2 SWAP1 POP JUMP JUMPDEST PUSH1 0x0 PUSH1 0x20 DUP3 ADD SWAP1 POP DUP2 DUP2 SUB PUSH1 0x0 DUP4 ADD MSTORE PUSH2 0x4FC DUP2 PUSH2 0x4C0 JUMP JUMPDEST SWAP1 POP SWAP2 SWAP1 POP JUMP JUMPDEST PUSH32 0x596F752063616E206F6E6C792073656E64203120457468657200000000000000 PUSH1 0x0 DUP3 ADD MSTORE POP JUMP JUMPDEST PUSH1 0x0 PUSH2 0x539 PUSH1 0x19 DUP4 PUSH2 0x3D4 JUMP JUMPDEST SWAP2 POP PUSH2 0x544 DUP3 PUSH2 0x503 JUMP JUMPDEST PUSH1 0x20 DUP3 ADD SWAP1 POP SWAP2 SWAP1 POP JUMP JUMPDEST PUSH1 0x0 PUSH1 0x20 DUP3 ADD SWAP1 POP DUP2 DUP2 SUB PUSH1 0x0 DUP4 ADD MSTORE PUSH2 0x568 DUP2 PUSH2 0x52C JUMP JUMPDEST SWAP1 POP SWAP2 SWAP1 POP JUMP JUMPDEST PUSH32 0x47616D65206973206F7665720000000000000000000000000000000000000000 PUSH1 0x0 DUP3 ADD MSTORE POP JUMP JUMPDEST PUSH1 0x0 PUSH2 0x5A5 PUSH1 0xC DUP4 PUSH2 0x3D4 JUMP JUMPDEST SWAP2 POP PUSH2 0x5B0 DUP3 PUSH2 0x56F JUMP JUMPDEST PUSH1 0x20 DUP3 ADD SWAP1 POP SWAP2 SWAP1 POP JUMP JUMPDEST PUSH1 0x0 PUSH1 0x20 DUP3 ADD SWAP1 POP DUP2 DUP2 SUB PUSH1 0x0 DUP4 ADD MSTORE PUSH2 0x5D4 DUP2 PUSH2 0x598 JUMP JUMPDEST SWAP1 POP SWAP2 SWAP1 POP JUMP INVALID LOG2 PUSH5 0x6970667358 0x22 SLT KECCAK256 0xB7 SAR LT BYTE RETURN 0xD5 STATICCALL BALANCE CALL PUSH17 0x4C14D8946313F3E3685B20243C42791C2D DUP12 SWAP9 0x2B 0xDF 0x2A PUSH5 0x736F6C6343 STOP ADDMOD GT STOP CALLER "
				},
				"gasEstimates": {
					"creation": {
						"codeDepositCost": "310600",
						"executionCost": "22455",
						"totalCost": "333055"
					},
					"external": {
						"balance()": "2429",
						"claimReward()": "infinite",
						"deposit()": "28716",
						"targetAmount()": "2407",
						"winner()": "2580"
					}
				},
				"methodIdentifiers": {
					"balance()": "b69ef8a8",
					"claimReward()": "b88a802f",
					"deposit()": "d0e30db0",
					"targetAmount()": "953b8fb8",
					"winner()": "dfbf53ae"
				}
			},
			"storageLayout": {
				"storage": [
					{
						"astId": 4,
						"contract": "problem_2/SelfDestruct.sol:EtherGame",
						"label": "targetAmount",
						"offset": 0,
						"slot": "0",
						"type": "t_uint256"
					},
					{
						"astId": 6,
						"contract": "problem_2/SelfDestruct.sol:EtherGame",
						"label": "winner",
						"offset": 0,
						"slot": "1",
						"type": "t_address"
					},
					{
						"astId": 8,
						"contract": "problem_2/SelfDestruct.sol:EtherGame",
						"label": "balance",
						"offset": 0,
						"slot": "2",
						"type": "t_uint256"
					}
				],
				"types": {
					"t_address": {
						"encoding": "inplace",
						"label": "address",
						"numberOfBytes": "20"
					},
					"t_uint256": {
						"encoding": "inplace",
						"label": "uint256",
						"numberOfBytes": "32"
					}
				}
			},
			"userdoc": {
				"kind": "user",
				"methods": {},
				"version": 1
			}
		}
	}
}